:100000000C942A000C9434000C9434000C943400AA
:100010000C9434000C9434000C9434000C94340090
:100020000C9434000C9434000C9434000C94340080
:100030000C9434000C9434000C9434000C94340070
:100040000C9434000C9434000C9434000C94340060
:100050000C94340011241FBECFE5D8E0DEBFCDBF25
:100060000E9436000C9484010C9400008FEF8ABB30
:100070001BBA8FE087BB88BB80E090E05DE0E4EADC
:100080006EE0F2E87BE0A0E847E0B2E930EB2FE079
:10009000843FD1E09D0754F468BBEBBBCCECDAE0C5
:1000A0002197F1F700C000000196F2CF84EF91E0B4
:1000B00058BBEBBBCCECDAE02197F1F700C00000B5
:1000C00068BBFBBBCCECDAE02197F1F700C0000085
:1000D0000197009769F784EF91E078BBEBBBCCEC1C
:1000E000DAE02197F1F700C0000058BBFBBBCCEC75
:1000F000DAE02197F1F700C0000068BBABBBCCECA5
:10010000DAE02197F1F700C000000197009729F786
:1001100084EF91E048BBEBBBCCECDAE02197F1F740
:1001200000C0000078BBFBBBCCECDAE02197F1F714
:1001300000C0000058BBABBBCCECDAE02197F1F774
:1001400000C0000068BBBBBBCCECDAE02197F1F744
:1001500000C0000001970097E9F684EF91E048BBEA
:10016000FBBBCCECDAE02197F1F700C0000078BBD4
:10017000ABBBCCECDAE02197F1F700C0000058BB34
:10018000BBBBCCECDAE02197F1F700C0000068BB04
:100190003BBBCCECDAE02197F1F700C000000197FF
:1001A0000097E9F684EF91E048BBABBBCCECDAE01A
:1001B0002197F1F700C0000078BBBBBBCCECDAE0C4
:1001C0002197F1F700C0000058BB3BBBCCECDAE054
:1001D0002197F1F700C0000068BB3BBBCCECDAE034
:1001E0002197F1F700C0000001970097E9F684EF2E
:1001F00091E048BBBBBBCCECDAE02197F1F700C043
:10020000000078BB3BBBCCECDAE02197F1F700C0F3
:10021000000058BB3BBBCCECDAE02197F1F700C003
:10022000000028BBCCECDAE02197F1F700C0000019
:1002300001970097F1F684EF91E048BB3BBBCCEC13
:10024000DAE02197F1F700C0000078BB3BBBCCECB3
:10025000DAE02197F1F700C0000028BBCCECDAE02F
:100260002197F1F700C0000028BBCCECDAE0219721
:10027000F1F700C0000001970097F9F684EF91E0D4
:1002800048BB3BBBCCECDAE02197F1F700C00000A3
:1002900028BBCCECDAE02197F1F700C0000028BBC6
:1002A000CCECDAE02197F1F700C0000028BBCCECE1
:1002B000DAE02197F1F700C000000197009701F7FD
:1002C00084EF91E048BBCCECDAE02197F1F700C075
:1002D000000028BBCCECDAE02197F1F700C0000069
:1002E00028BBCCECDAE02197F1F700C0000028BB76
:1002F000CCECDAE02197F1F700C0000001970097FD
:0C03000009F780E090E0C4CEF894FFCF35
:00000001FF
